:040000005CEF0AF0B7
:10145000026E02C083FF848041EC0AF01200026E2B
:1014600002C083FF849041EC0AF01200000EC16EAE
:10147000880EC06E000EC36E000EC46E010EC26EEA
:10148000120084841A0E016EF80EE82EFED7012E8B
:10149000FCD700D084941200380E2FEC0AF00E0E08
:1014A0002FEC0AF0010E2FEC0AF0060E2FEC0AF0DA
:1014B000800E2FEC0AF01200DE0EF66E140EF76EA0
:1014C000000EF86E00EEA1F010EE2EF00900F5CF40
:1014D000EEFFE550E150FAE100010AEF0DF0736D07
:1014E0006172742069727269676174696F6E004D10
:1014F0004F544F52204F464600204472796E657318
:10150000733A004D4F544F52204F4E0098EF0AF05F
:1015100003C0D9FF04C0DAFFDF5028EC0AF0034A09
:10152000042A030E056E980EE82EFED7052EFCD772
:1015300003C0D9FF04C0DAFFDF50D8A4A2EF0AF03D
:10154000A4EF0AF088EF0AF0120001C003F0D8906F
:101550000336D89003363C0E0316C250C30B03105B
:10156000C26EC2B2B6EF0AF0BAEF0AF0036A032AFB
:10157000BBEF0AF0036A010E046E032AC2EF0AF001
:10158000D8900436032EC0EF0AF0C2B0CAEF0AF0BA
:10159000CEEF0AF0056A052ACFEF0AF0056A010EC0
:1015A000066E052AD6EF0AF0D8900636052ED4EF3F
:1015B0000AF006500410C212C2B2E1EF0AF0E3EFE3
:1015C0000AF0DCEF0AF0C350C4CF03F0046A03C092
:1015D00004F0036A0310076E0450086E07C001F0A0
:1015E00008C002F01200000E066E02BEFCEF0AF008
:1015F000FAEF0AF002EF0BF0016C021ED8B0022ADB
:10160000010E066E04BE09EF0BF007EF0BF00DEFB5
:101610000BF0036C041ED8B0042A03500410D8B495
:1016200014EF0BF016EF0BF03AEF0BF0010E056E16
:101630001EEF0BF0D89003360436052A04AE23EFD4
:101640000BF025EF0BF01AEF0BF00350015C045088
:101650000258D8A02EEF0BF030EF0BF034EF0BF068
:101660000350015E0450025AD89004320332052E12
:1016700025EF0BF00650D8B440EF0BF042EF0BF023
:1016800046EF0BF0016C021ED8B0022A01C001F037
:1016900002C002F01200000E066E04BE54EF0BF002
:1016A00052EF0BF05AEF0BF0036C041ED8B0042A73
:1016B000010E066E02BE61EF0BF05FEF0BF067EFFD
:1016C0000BF0016C021ED8B0022A010E061A000EA1
:1016D000086E000E076E03500410D8B472EF0BF0C2
:1016E00074EF0BF09CEF0BF0010E056E7CEF0BF02E
:1016F000D89003360436052A04AE81EF0BF083EF51
:101700000BF078EF0BF0D890073608360350015CE9
:1017100004500258D8A08FEF0BF091EF0BF096EF2A
:101720000BF00350015E0450025A0780D890043237
:101730000332052E83EF0BF00650D8B4A2EF0BF066
:10174000A4EF0BF0A8EF0BF0076C081ED8B0082A26
:1017500007C001F008C002F012002A342B34316EA9
:101760003150D8A4B6EF0BF0B8EF0BF0C2EF0BF08E
:10177000000E286E000E296E000E2A6E000E2B6ED3
:101780002FEF0CF028C02CF029C02DF02AC02EF02D
:101790002BC02FF0200ED2EF0BF0D8902F322E322C
:1017A0002D322C32E82ECDEF0BF02C50306E2A8EDD
:1017B000FF0E2816FF0E2916FF0E2A16000E2B16F6
:1017C000960E315E31BEE9EF0BF0E7EF0BF0FFEF65
:1017D0000BF03150800A970FD8B0F1EF0BF0F3EF18
:1017E0000BF0F5EF0BF0B8EF0BF0D8902B322A325C
:1017F00029322832313EF5EF0BF017EF0CF01F0EB7
:10180000316405EF0CF007EF0CF00FEF0CF0B8EFC0
:101810000BF0D890283629362A362B36310631502F
:10182000D8A415EF0CF017EF0CF009EF0CF03050C6
:10183000D8B41DEF0CF01FEF0CF027EF0CF02B1EAF
:101840002A1E291E286C000E29222A222B2228C09B
:1018500028F029C029F02AC02AF02BC02BF0120052
:10186000096E0950D8B437EF0CF039EF0CF05BEF8C
:101870000CF004BE40EF0CF03EEF0CF05BEF0CF010
:1018800001C005F002C006F003C007F004C008F074
:10189000051E061E071E081E052A000E0622072228
:1018A000082205C00BF006C00CF007C00DF008C000
:1018B0000EF063EF0CF001C00BF002C00CF003C09F
:1018C0000DF004C00EF00150021003100410D8A453
:1018D0006CEF0CF06EEF0CF078EF0CF0000E016E78
:1018E000000E026E000E036E000E046E09EF0DF086
:1018F000960E0A6E82EF0CF00A2AD8900E320D3244
:101900000C320B32000E0B14056E000E0C14066E1A
:10191000000E0D14076EFE0E0E14086E0550061014
:1019200007100810D8A497EF0CF099EF0CF07CEF9B
:101930000CF0A7EF0CF00A2A010E0B26000E0C2269
:101940000D220E22D8900E320D320C320B32000EC8
:101950000B14056E000E0C14066E000E0D14076EAF
:10196000FF0E0E14086E0550061007100810D8A4BC
:10197000BCEF0CF0BEEF0CF09BEF0CF0C6EF0CF0E0
:101980000A06D8900B360C360D360E360DBECBEF50
:101990000CF0CDEF0CF0D5EF0CF0020E0A60D3EF97
:1019A0000CF0D5EF0CF0C0EF0CF00AB0DAEF0CF051
:1019B000DCEF0CF0DDEF0CF00D9ED8900A320AC07F
:1019C00005F0066A076A086A05C008F0076A066A31
:1019D000056A05500B1206500C1207500D120850E4
:1019E0000E120950D8B4F7EF0CF0F9EF0CF001EF3C
:1019F0000DF004BE00EF0DF0FEEF0CF001EF0DF066
:101A00000E8E0BC001F00CC002F00DC003F00EC032
:101A100004F01200000E0F013B6F000E3C6F000E31
:101A20003A6F000E956E000E966E000E946E9280C8
:101A3000949E20EEA1F010EE60F0100EDBCFE3FFDD
:101A4000E806FCE220EEBCF010EE71F0090EDBCFF0
:101A5000E3FFE806FCE220EEC6F010EE85F0080E8B
:101A6000DBCFE3FFE806FCE220EEB2F010EE7BF005
:101A7000090EDBCFE3FFE806FCE236EC0AF04CECA3
:101A80000AF0600E036E000E046E86EC0AF0820E01
:101A9000326EDE0EE82EFED7322EFCD7010E2FEC72
:101AA0000AF0800E2FEC0AF0710E036E000E046E29
:101AB00086EC0AF0000E026E000E016EA5EC0AF034
:101AC00001C09DF002C09EF0140E136EAE0E146E97
:101AD000230E156E410E166E9DC001F09EC002F0E1
:101AE000000E02BEFF0E036E046E010E30EC0CF011
:101AF00001C00FF002C010F003C011F004C012F0DA
:101B000033EC0EF00FC028F010C029F011C02AF0FD
:101B100012C02BF0ADEC0BF028C093F029C094F06C
:101B20000001935164089F6F9451D8A0E82A0008DF
:101B3000A06F890E2FEC0AF09FC001F0A0C002F048
:101B4000000E046E640E036E4BEC0BF001C095F0BA
:101B500002C096F09FC001F0A0C002F0000E046E1B
:101B6000640E036EF3EC0AF001C097F002C098F027
:101B7000000197519811D8B4C0EF0DF0C2EF0DF0ED
:101B8000E0EF0DF09FC001F0A0C002F0000E046E67
:101B90000A0E036E4BEC0BF001C099F002C09AF0F4
:101BA0009FC001F0A0C002F0000E046E0A0E036E8A
:101BB000F3EC0AF001C09BF002C09CF0E8EF0DF0DE
:101BC000000E9A6F000E996F000E9C6F000E9B6FB7
:101BD00000019551300F8E6F9951300F8F6F9B51CF
:101BE000300F906F250E916F8E0E036E000E046EF7
:101BF00086EC0AF01A0E326EF80EE82EFED7322E60
:101C0000FCD700D000019EBF11EF0EF0200E9D5DAD
:101C1000030E9E59D8B00FEF0EF011EF0EF01DEF2E
:101C20000EF0C00E2FEC0AF0850E036E000E046E4F
:101C300086EC0AF0828E27EF0EF0C00E2FEC0AF031
:101C40007B0E036E000E046E86EC0AF0829E4E0E32
:101C5000326EEB0EE82EFED7322EFCD700F04EEFA0
:101C60000DF000EF00F01250800B1F6E1250122486
:101C7000266E11AE3EEF0EF040EF0EF041EF0EF08B
:101C800026802650D8B447EF0EF049EF0EF05EEFF5
:101C90000EF02628D8A44FEF0EF051EF0EF059EFBA
:101CA0000EF0000E0F6E000E106E000E116E000E84
:101CB000126E118E000E126E66EF0EF0000E0F6E99
:101CC000000E106E000E116E000E126E1650800B7C
:101CD0001F1A16501624276E15AE71EF0EF073EF13
:101CE0000EF074EF0EF027802750D8B47AEF0EF084
:101CF0007CEF0EF091EF0EF02728D8A482EF0EF0C3
:101D000084EF0EF08CEF0EF0000E136E000E146ECA
:101D1000000E156E000E166E158E000E166E99EFE3
:101D20000EF0000E136E000E146E000E156E000EF7
:101D3000166E1350141015101610D8A4A2EF0EF042
:101D4000A4EF0EF0BCEF0EF0000E0F6E000E106E42
:101D5000000E116E000E126E800E11127F0E121206
:101D60001F5012120FC00FF010C010F011C011F070
:101D700012C012F0FFEF0FF02650D8A4C2EF0EF001
:101D8000C4EF0EF0CEEF0EF0000E0F6E000E106ED0
:101D9000000E116E000E126EFFEF0FF0275026C0DE
:101DA00017F0186A175E000E185A7F0E1724206E5F
:101DB000000E1820216E0FC01BF010C01CF011C0C7
:101DC0001DF012C01EF0000E0F6E000E106E000E01
:101DD000116E000E126E000E226E000E236E000EAB
:101DE000246E000E256E000E276E2FEF0FF0275089
:101DF000D8B4FDEF0EF0FFEF0EF016EF0FF0D89015
:101E00001B361C361D361E36D8900F36103611364E
:101E1000123625AE0EEF0FF010EF0FF011EF0FF0AE
:101E20000F80D890223623362436253613501B5C7B
:101E300014501C5815501D5816501E58D8A023EF8A
:101E40000FF025EF0FF02EEF0FF0258C13501B5ED7
:101E500014501C5A15501D5A16501E5A272A190E76
:101E6000276435EF0FF037EF0FF0F7EF0EF01B5050
:101E70001C101D101E10D8B440EF0FF042EF0FF0F1
:101E80005AEF0FF022805AEF0FF0D8900F3610362D
:101E90001136123625AE4FEF0FF051EF0FF052EF23
:101EA0000FF00F80D89022362336243625362006B0
:101EB000D8A0210611AE5FEF0FF061EF0FF045EFF4
:101EC0000FF0000E276E25AE68EF0FF06AEF0FF0EF
:101ED0008EEF0FF0FF0E2214176EFF0E2314186EF4
:101EE000FF0E2414196E7F0E25141A6E1750181049
:101EF00019101A10D8B47FEF0FF081EF0FF085EFB3
:101F00000FF0010E276E8EEF0FF00FA08AEF0FF08B
:101F10008CEF0FF08EEF0FF081EF0FF02750D8B459
:101F200094EF0FF096EF0FF0BAEF0FF0010E0F26BF
:101F3000000E10221122122212A0A1EF0FF0A3EF27
:101F40000FF0BAEF0FF00FC017F010C018F011C06B
:101F500019F012C01AF01A341A3219321832173224
:101F600017C00FF018C010F019C011F01AC012F00D
:101F7000204A212A21BEC5EF0FF0215008E1202878
:101F8000D8A0C5EF0FF0C7EF0FF0D2EF0FF0000EA3
:101F9000216E2068000E0F6E000E106E000E116E86
:101FA000000E126E21BEDFEF0FF0215006E120047B
:101FB000D8B0DDEF0FF0DFEF0FF0EDEF0FF0000E18
:101FC000216E000E206E000E0F6E000E106E000EC1
:101FD000116E000E126E000E1F6E20C026F026A09D
:101FE000F4EF0FF0F6EF0FF0F9EF0FF0118EFAEFBC
:101FF0000FF0119ED8902630126EB0EF0EF0120046
:020000040020DA
:08000000FFFFFFFFFFFFFFFF00
:020000040030CA
:0E000000FF281F3FFFBF85FF03C003E0034042
:00000001FF
